00063694590110MS340020140824210010000002005307001104       SERVICO DE ACESSO A INTERNET            0104UN    0000000100000000001000000000070000000000000000000000000000000070000000000000000000000000000000000000000N1408     C1F477CF108A52E66ABE8443B64EA1B6
00051876108134MS340020140824210010000002015307001104       SERVICO DE ACESSO A INTERNET            0104UN    0000000100000000001000000000050000000000000000000000000000000050000000000000000000000000000000000000000N1408     99A8CC23DA41CB5D6998BF1CD4455785
00051943220115MS340020140824210010000002025307001104       SERVICO DE ACESSO A INTERNET            0104UN    0000000100000000001000000000090000000000000000000000000000000090000000000000000000000000000000000000000N1408     6937EAC80C012F5F654E4584BCC6DE8D
00012118738897MS340020140824210010000002035307001104       SERVICO DE ACESSO A INTERNET            0104UN    0000000100000000001000000000040000000000000000000000000000000040000000000000000000000000000000000000000N1408     79AADF816659F3AEF804A999D65FDF1C
00059620455134MS340020140824210010000002045307001104       SERVICO DE ACESSO A INTERNET            0104UN    0000000100000000001000000000050000000000000000000000000000000050000000000000000000000000000000000000000N1408     8DA907DDFE74FA0E47BD0610705CB0F0
00006367348115MS340020140824210010000002055307001104       SERVICO DE ACESSO A INTERNET            0104UN    0000000100000000001000000000090000000000000000000000000000000090000000000000000000000000000000000000000N1408     54184F712D225871EEB91E94EACF6F38
00051868563120MS340020140824210010000002065307001104       SERVICO DE ACESSO A INTERNET            0104UN    0000000100000000001000000000050000000000000000000000000000000050000000000000000000000000000000000000000N1408     9DAB5C430D10CE7F54F3183879350505
00002036433138MS340020140824210010000002075307001104       SERVICO DE ACESSO A INTERNET            0104UN    0000000100000000001000000000100000000000000000000000000000000100000000000000000000000000000000000000000N1408     9F2FBB5B3C2891234D545CB024E4DDCB
00040844552100MS340020140824210010000002085307001104       SERVICO DE ACESSO A INTERNET            0104UN    0000000100000000001000000000070000000000000000000000000000000070000000000000000000000000000000000000000N1408     0A59C278AA98F608BFAF05BEF7115192
00000041016181MS340020140824210010000002095307001104       SERVICO DE ACESSO A INTERNET            0104UN    0000000100000000001000000000090000000000000000000000000000000090000000000000000000000000000000000000000N1408     1EB159FE202D1098FC0CDE588FC68193
00087066645120MS340020140824210010000002105307001104       SERVICO DE ACESSO A INTERNET            0104UN    0000000100000000001000000000070000000000000000000000000000000070000000000000000000000000000000000000000N1408     824AB87548CF8130180C719F0BED597C
00087340453172MS340020140824210010000002115307001104       SERVICO DE ACESSO A INTERNET            0104UN    0000000100000000001000000000090000000000000000000000000000000090000000000000000000000000000000000000000N1408     D3C49EF884105636E8ED0B3446C65041
00059570253134MS340020140824210010000002125307001104       SERVICO DE ACESSO A INTERNET            0104UN    0000000100000000001000000000070000000000000000000000000000000070000000000000000000000000000000000000000N1408     7DCAF791E499B06A1811C8014F6E441F
00060831944153MS340020140824210010000002135307001104       SERVICO DE ACESSO A INTERNET            0104UN    0000000100000000001000000000050000000000000000000000000000000050000000000000000000000000000000000000000N1408     6A4CB82FB5F89E09C1271862A8EC3C9C
00000069429111MS340020140824210010000002145307001104       SERVICO DE ACESSO A INTERNET            0104UN    0000000100000000001000000000070000000000000000000000000000000070000000000000000000000000000000000000000N1408     317F051E38A8DCE99E2C90445802005A
00003097663118MS340020140824210010000002155307001104       SERVICO DE ACESSO A INTERNET            0104UN    0000000100000000001000000000090000000000000000000000000000000090000000000000000000000000000000000000000N1408     FB7D335B28117FE5B33AA9EE470B5469
00003478500141MS140020140824210010000002165303001104       SERVICO DE ACESSO A INTERNET            0104UN    0000000100000000001000000000070000000000000000000000000000000070000000000000000000000000000000000000000N1408     7D4EB901E00750C81A94B31EC2433EBA
00000093838166MS340020140824210010000002175307001104       SERVICO DE ACESSO A INTERNET            0104UN    0000000100000000001000000000050000000000000000000000000000000050000000000000000000000000000000000000000N1408     80CF82D092AA6231CE642FB3ECB2EFB9
00005078410180MS340020140824210010000002185307001104       SERVICO DE ACESSO A INTERNET            0104UN    0000000100000000001000000000090000000000000000000000000000000090000000000000000000000000000000000000000N1408     002F3B2835AB4921F3877BB63959664D
00017683106100MS340020140824210010000002195307001104       SERVICO DE ACESSO A INTERNET            0104UN    0000000100000000001000000000120000000000000000000000000000000120000000000000000000000000000000000000000N1408     C217C414A76CEBFC0C2AD8A919C57313
00089001460178MS340020140824210010000002205307001104       SERVICO DE ACESSO A INTERNET            0104UN    0000000100000000001000000000090000000000000000000000000000000090000000000000000000000000000000000000000N1408     1533D7618D515AEAC536DD4787480A4D
00024976474100MS340020140824210010000002215307001104       SERVICO DE ACESSO A INTERNET            0104UN    0000000100000000001000000000120000000000000000000000000000000120000000000000000000000000000000000000000N1408     ACAABB641E14FDCFB57673C236219311
00074056220115MS340020140824210010000002225307001104       SERVICO DE ACESSO A INTERNET            0104UN    0000000100000000001000000000090000000000000000000000000000000090000000000000000000000000000000000000000N1408     4731FFBFE78DDE7760188B280F48DE5D
00002262097178MS340020140824210010000002235307001104       SERVICO DE ACESSO A INTERNET            0104UN    0000000100000000001000000000090000000000000000000000000000000090000000000000000000000000000000000000000N1408     6D8B770B0BF3A63A61D3B5B2839DBDC6
00099512289172MS340020140824210010000002245307001104       SERVICO DE ACESSO A INTERNET            0104UN    0000000100000000001000000000090000000000000000000000000000000090000000000000000000000000000000000000000N1408     C73D30491EAE12B616580531C7800B61
00028682246104MS340020140824210010000002255307001104       SERVICO DE ACESSO A INTERNET            0104UN    0000000100000000001000000000120000000000000000000000000000000120000000000000000000000000000000000000000N1408     BAD6A67AB1F4401568FC38993389D28A
00031305571134MS340020140824210010000002265307001104       SERVICO DE ACESSO A INTERNET            0104UN    0000000100000000001000000000090000000000000000000000000000000090000000000000000000000000000000000000000N1408     C874A84DFCF2ABA343D4F1DCAF735DCA
00090029135168MS340020140824210010000002275307001104       SERVICO DE ACESSO A INTERNET            0104UN    0000000100000000001000000000070000000000000000000000000000000070000000000000000000000000000000000000000N1408     F8151B80AECFAF0CBBE257A2C63CE0C6
00054401062191MS340020140824210010000002285307001104       SERVICO DE ACESSO A INTERNET            0104UN    0000000100000000001000000000120000000000000000000000000000000120000000000000000000000000000000000000000N1408     B56B5306989AED28765C1D7F18CC9B9A
00093326610149MS340020140824210010000002295307001104       SERVICO DE ACESSO A INTERNET            0104UN    0000000100000000001000000000090000000000000000000000000000000090000000000000000000000000000000000000000N1408     7C86173A881D350FD78EF63B61CA97E4
00001721840109MS340020140824210010000002305307001104       SERVICO DE ACESSO A INTERNET            0104UN    0000000100000000001000000000070000000000000000000000000000000070000000000000000000000000000000000000000N1408     A471FC04D7DD7189D4944804FD256F44
00000454180128MS340020140824210010000002315307001104       SERVICO DE ACESSO A INTERNET            0104UN    0000000100000000001000000000090000000000000000000000000000000090000000000000000000000000000000000000000N1408     12FC9D8AF4BCCA702C5DCA783AD9FB57
00000752810154MS340020140824210010000002325307001104       SERVICO DE ACESSO A INTERNET            0104UN    0000000100000000001000000000120000000000000000000000000000000120000000000000000000000000000000000000000N1408     A72A70C1E5F38F2E095147E2B4DCE3C4
00002296505112MS340020140824210010000002335307001104       SERVICO DE ACESSO A INTERNET            0104UN    0000000100000000001000000000090000000000000000000000000000000090000000000000000000000000000000000000000N1408     18E0D1F42C515060DB97CFD285895807
00039106136168MS340020140824210010000002345307001104       SERVICO DE ACESSO A INTERNET            0104UN    0000000100000000001000000000018000000000000000000000000000000018000000000000000000000000000000000000000N1408     3930471AC96F67BEA62C647D9ED2BC79
00039106136168MS340020140824210010000002345307002104       SERVICO DE ACESSO A INTERNET            0104UN    0000000100000000001000000000072000000000000000000000000000000072000000000000000000000000000000000000000N1408     5DFB08E30A09594CA1A14C3291AFA124
00000010520120MS340020140824210010000002355307001104       SERVICO DE ACESSO A INTERNET            0104UN    0000000100000000001000000000070000000000000000000000000000000070000000000000000000000000000000000000000N1408     B9E6ECD3E561DC456CEE159C2BEA2498
00045678847104MS340020140824210010000002365307001104       SERVICO DE ACESSO A INTERNET            0104UN    0000000100000000001000000000100000000000000000000000000000000100000000000000000000000000000000000000000N1408     43EED013DC65947A4560883127A8C931
00004457910120MS340020140824210010000002375307001104       SERVICO DE ACESSO A INTERNET            0104UN    0000000100000000001000000000100000000000000000000000000000000100000000000000000000000000000000000000000N1408     1070B3970C158DECB1C9E665DB9054F7
00059083565149RJ340020140824210010000002385307001104       SERVICO DE ACESSO A INTERNET            0104UN    0000000100000000001000000000050000000000000000000000000000000050000000000000000000000000000000000000000N1408     B298C59F3FD2ED8330F116E02D801CE8
00060959347100MS340020140824210010000002395307001104       SERVICO DE ACESSO A INTERNET            0104UN    0000000100000000001000000000090000000000000000000000000000000090000000000000000000000000000000000000000N1408     86AE3F3238831F26B926FC8875FB5ACE
00059245123120MS340020140824210010000002405307001104       SERVICO DE ACESSO A INTERNET            0104UN    0000000100000000001000000000100000000000000000000000000000000100000000000000000000000000000000000000000N1408     6734A58BA3079BE486A837F926FCC8A9
