00063694590110MS340020140824210010000000015307001104       SERVICO DE ACESSO A INTERNET            0104UN    0000000100000000001000000000070000000000000000000000000000000070000000000000000000000000000000000000000N1408     E4026DAB4DE7C5E125D5D74E440C4EA9
00051876108134MS340020140824210010000000025307001104       SERVICO DE ACESSO A INTERNET            0104UN    0000000100000000001000000000050000000000000000000000000000000050000000000000000000000000000000000000000N1408     6CE052C8961AA71C470A978EC8E9A3B8
00051943220115MS340020140824210010000000035307001104       SERVICO DE ACESSO A INTERNET            0104UN    0000000100000000001000000000090000000000000000000000000000000090000000000000000000000000000000000000000N1408     978E12FCB59F128EFD412811DD9B3E14
00012118738897MS340020140824210010000000045307001104       SERVICO DE ACESSO A INTERNET            0104UN    0000000100000000001000000000040000000000000000000000000000000040000000000000000000000000000000000000000N1408     0E55BE57A38172AEE70843F93885CE54
00059620455134MS340020140824210010000000055307001104       SERVICO DE ACESSO A INTERNET            0104UN    0000000100000000001000000000050000000000000000000000000000000050000000000000000000000000000000000000000N1408     D0836D41F027B6C1585EB90C56D71361
00006367348115MS340020140824210010000000065307001104       SERVICO DE ACESSO A INTERNET            0104UN    0000000100000000001000000000090000000000000000000000000000000090000000000000000000000000000000000000000N1408     451277E9BC7F50C106B8E33C239EEAB0
00051868563120MS340020140824210010000000075307001104       SERVICO DE ACESSO A INTERNET            0104UN    0000000100000000001000000000050000000000000000000000000000000050000000000000000000000000000000000000000N1408     EF4F918975E3005C9925E25DE473D81D
00002036433138MS340020140824210010000000085307001104       SERVICO DE ACESSO A INTERNET            0104UN    0000000100000000001000000000100000000000000000000000000000000100000000000000000000000000000000000000000N1408     3150DAF1E488597665228543BB376D9D
00040844552100MS340020140824210010000000095307001104       SERVICO DE ACESSO A INTERNET            0104UN    0000000100000000001000000000070000000000000000000000000000000070000000000000000000000000000000000000000N1408     B033846E56F315EB6122F2CAA0E824A8
00000041016181MS340020140824210010000000105307001104       SERVICO DE ACESSO A INTERNET            0104UN    0000000100000000001000000000090000000000000000000000000000000090000000000000000000000000000000000000000N1408     784875FABB6C140FDE3065FDD4019716
00087066645120MS340020140824210010000000115307001104       SERVICO DE ACESSO A INTERNET            0104UN    0000000100000000001000000000070000000000000000000000000000000070000000000000000000000000000000000000000N1408     F10A12B22866B29C8C3E3290E3A8B196
00087340453172MS340020140824210010000000125307001104       SERVICO DE ACESSO A INTERNET            0104UN    0000000100000000001000000000090000000000000000000000000000000090000000000000000000000000000000000000000N1408     39605438328A8A75BEB87BE137DB475F
00059570253134MS340020140824210010000000135307001104       SERVICO DE ACESSO A INTERNET            0104UN    0000000100000000001000000000070000000000000000000000000000000070000000000000000000000000000000000000000N1408     DC16C7F74B6017B4A49718CA5C6B02CB
00060831944153MS340020140824210010000000145307001104       SERVICO DE ACESSO A INTERNET            0104UN    0000000100000000001000000000050000000000000000000000000000000050000000000000000000000000000000000000000N1408     B98B7FD4CB40AB7D4B467CB309DCAAEA
00000069429111MS340020140824210010000000155307001104       SERVICO DE ACESSO A INTERNET            0104UN    0000000100000000001000000000070000000000000000000000000000000070000000000000000000000000000000000000000N1408     220E54CBF5C6EFFBF53427B203EEAEA3
00003097663118MS340020140824210010000000165307001104       SERVICO DE ACESSO A INTERNET            0104UN    0000000100000000001000000000090000000000000000000000000000000090000000000000000000000000000000000000000N1408     26C24BB08F8C828B1FE81E3E1170AAF7
00003478500141MS140020140824210010000000175303001104       SERVICO DE ACESSO A INTERNET            0104UN    0000000100000000001000000000070000000000000000000000000000000070000000000000000000000000000000000000000N1408     BE5BF5B32B04AF3B7F113D5768925332
00000093838166MS340020140824210010000000185307001104       SERVICO DE ACESSO A INTERNET            0104UN    0000000100000000001000000000050000000000000000000000000000000050000000000000000000000000000000000000000N1408     466FFEC6B9A33BACA7232832706168CA
00005078410180MS340020140824210010000000195307001104       SERVICO DE ACESSO A INTERNET            0104UN    0000000100000000001000000000090000000000000000000000000000000090000000000000000000000000000000000000000N1408     D04D4FFA220DA030E0C16BBDD545FFBF
00017683106100MS340020140824210010000000205307001104       SERVICO DE ACESSO A INTERNET            0104UN    0000000100000000001000000000120000000000000000000000000000000120000000000000000000000000000000000000000N1408     08EE72EF38778F507C9165431A3C6C5C
00089001460178MS340020140824210010000000215307001104       SERVICO DE ACESSO A INTERNET            0104UN    0000000100000000001000000000090000000000000000000000000000000090000000000000000000000000000000000000000N1408     58885D87121712A0065E462FB75F0A78
00024976474100MS340020140824210010000000225307001104       SERVICO DE ACESSO A INTERNET            0104UN    0000000100000000001000000000120000000000000000000000000000000120000000000000000000000000000000000000000N1408     87B9D81C10C8154D610C2EEEDC56DE89
00074056220115MS340020140824210010000000235307001104       SERVICO DE ACESSO A INTERNET            0104UN    0000000100000000001000000000090000000000000000000000000000000090000000000000000000000000000000000000000N1408     8186402A804D76BE699A2201B61C785C
00002262097178MS340020140824210010000000245307001104       SERVICO DE ACESSO A INTERNET            0104UN    0000000100000000001000000000090000000000000000000000000000000090000000000000000000000000000000000000000N1408     CEF942F9E32E0E43C5B303A57B5F2F85
00099512289172MS340020140824210010000000255307001104       SERVICO DE ACESSO A INTERNET            0104UN    0000000100000000001000000000090000000000000000000000000000000090000000000000000000000000000000000000000N1408     10663840A9E6EA31700029F7D934E7FE
00028682246104MS340020140824210010000000265307001104       SERVICO DE ACESSO A INTERNET            0104UN    0000000100000000001000000000120000000000000000000000000000000120000000000000000000000000000000000000000N1408     6DF739DE6B1F13A129D3CA568D761820
00031305571134MS340020140824210010000000275307001104       SERVICO DE ACESSO A INTERNET            0104UN    0000000100000000001000000000090000000000000000000000000000000090000000000000000000000000000000000000000N1408     C802DAB47C10E4C8B2A9598AFA4D43EF
00090029135168MS340020140824210010000000285307001104       SERVICO DE ACESSO A INTERNET            0104UN    0000000100000000001000000000070000000000000000000000000000000070000000000000000000000000000000000000000N1408     E528708250EA09DF35DC0102882877AC
00054401062191MS340020140824210010000000295307001104       SERVICO DE ACESSO A INTERNET            0104UN    0000000100000000001000000000120000000000000000000000000000000120000000000000000000000000000000000000000N1408     4CB63C4F23B486BDAB5522D3902CA7AA
00093326610149MS340020140824210010000000305307001104       SERVICO DE ACESSO A INTERNET            0104UN    0000000100000000001000000000090000000000000000000000000000000090000000000000000000000000000000000000000N1408     3D52AF14A6F7BDE9BEA5FF59D94F35F9
00001721840109MS340020140824210010000000315307001104       SERVICO DE ACESSO A INTERNET            0104UN    0000000100000000001000000000070000000000000000000000000000000070000000000000000000000000000000000000000N1408     B67C739BFF0047A063BC9DB51BC34757
00000454180128MS340020140824210010000000325307001104       SERVICO DE ACESSO A INTERNET            0104UN    0000000100000000001000000000090000000000000000000000000000000090000000000000000000000000000000000000000N1408     0B475CCFA20020F2E42FB2CFD5C114F8
00000752810154MS340020140824210010000000335307001104       SERVICO DE ACESSO A INTERNET            0104UN    0000000100000000001000000000120000000000000000000000000000000120000000000000000000000000000000000000000N1408     E43B11987E5853113D4B9D580303B9D9
00002296505112MS340020140824210010000000345307001104       SERVICO DE ACESSO A INTERNET            0104UN    0000000100000000001000000000090000000000000000000000000000000090000000000000000000000000000000000000000N1408     389A7E4E36B871ABDB10A5AF70E3592F
00039106136168MS340020140824210010000000355307001104       SERVICO DE ACESSO A INTERNET            0104UN    0000000100000000001000000000018000000000000000000000000000000018000000000000000000000000000000000000000N1408     27FF7883B6E4D50A6D8D114D7211FAFD
00039106136168MS340020140824210010000000355307002104       SERVICO DE ACESSO A INTERNET            0104UN    0000000100000000001000000000072000000000000000000000000000000072000000000000000000000000000000000000000N1408     2BA2AB5C06E3EC300D6F62F5DCDFE677
00000010520120MS340020140824210010000000365307001104       SERVICO DE ACESSO A INTERNET            0104UN    0000000100000000001000000000070000000000000000000000000000000070000000000000000000000000000000000000000N1408     A0DF6C702DBDD0A4223491CA735DBF7C
00045678847104MS340020140824210010000000375307001104       SERVICO DE ACESSO A INTERNET            0104UN    0000000100000000001000000000100000000000000000000000000000000100000000000000000000000000000000000000000N1408     774E573391FC2A2D27D4573A739622EE
00004457910120MS340020140824210010000000385307001104       SERVICO DE ACESSO A INTERNET            0104UN    0000000100000000001000000000100000000000000000000000000000000100000000000000000000000000000000000000000N1408     3398DF194D9AEEFDBA16A94AE4935B03
00059083565149RJ340020140824210010000000395307001104       SERVICO DE ACESSO A INTERNET            0104UN    0000000100000000001000000000050000000000000000000000000000000050000000000000000000000000000000000000000N1408     38921679F0DA003A92A5B08DB3A316F0
00060959347100MS340020140824210010000000405307001104       SERVICO DE ACESSO A INTERNET            0104UN    0000000100000000001000000000090000000000000000000000000000000090000000000000000000000000000000000000000N1408     AA8F7DD148AD1AD16AC9B347D15A7FF3
00059245123120MS340020140824210010000000415307001104       SERVICO DE ACESSO A INTERNET            0104UN    0000000100000000001000000000100000000000000000000000000000000100000000000000000000000000000000000000000N1408     33B70124175DF4741301897787597326
