00063694590110711895        UBIRAJARA BORGES DANIEL            MS3400103         20140824210010000002000D9E3292BC757A6C72E2F5058E5775A9000000007000000000007000000000000000000000000000000000000000N1408000000001                 466E439E78B20FAA0E91D3D721155EFB
00051876108134560144        GERSON RODRIGUES NOGUEIRA          MS340010          2014082421001000000201AFEF3C0635A63630B1FF49211E7B3CE1000000005000000000005000000000000000000000000000000000000000N1408000000002                 BF8769B1C6AFA033BD94401F46631649
00051943220115597918        MARIA APARECIDA MARINHO            MS3400123         201408242100100000020233DDF36954ED75F78535E04EA419D42B000000009000000000009000000000000000000000000000000000000000N1408000000003                 958113EF1C07520DC3866D133D29F4C1
00012118738897001811735     ROSA MARIA RODRIGUES RIBEIRO       MS3400125         2014082421001000000203917DCC92DC5F07D5A586D1994BA80C97000000004000000000004000000000000000000000000000000000000000N1408000000004                 40EFACFFA0F6D6425AE0E3AE73351C00
00059620455134000739250     SANDRA REGINA DA SILVA GOMES       MS340012          20140824210010000002045EE23ADD683AA0DB70B8E05BC814545F000000005000000000005000000000000000000000000000000000000000N1408000000005                 5A0265E96D095990BD8C3EE99ECA5A8A
00006367348115161172        PERICLES ANTONIO BARBOZA           MS3400134         2014082421001000000205DC53082008A8FA7B935A22F094789287000000009000000000009000000000000000000000000000000000000000N1408000000006                 F722805CE974C53F941CB9060F534A6E
00051868563120642613        LUCINEIDE CHAGAS DA SILVA          MS3400136         2014082421001000000206F94C495BA842907008F4CF0344C99683000000005000000000005000000000000000000000000000000000000000N1408000000007                 63422D1ED756E9CF2D69C7B6B3128439
00002036433138001491790     THIAGO APARECIDO DA SILVA          MS3400142         2014082421001000000207368AFAFFD076A5207455B13A57671582000000010000000000010000000000000000000000000000000000000000N1408000000008                 FFDC7E59DD9B8E13B98CDC27EC3A76A4
00040844552100815397        HELDER ARRUDA AMARAL               MS3400152         2014082421001000000208229724D536F29D4E30891C3F822710F8000000007000000000007000000000000000000000000000000000000000N1408000000009                 B37E33664B1C8609669E2260E8669623
000000410161811126675       HERCULES ALVES ARRUDA              MS3400165         2014082421001000000209A89739F337733500F54E79936AABDAA6000000009000000000009000000000000000000000000000000000000000N1408000000010                 5660FEFACD68C755DF1B64BAF42352B1
00087066645120000948117     ROSENILDA LIMA DA SILVA            MS3400167         2014082421001000000210004A2D761F1AA24ED539E160CA4F065A000000007000000000007000000000000000000000000000000000000000N1408000000011                 4C9828A9E7F03CED472EDA0974DFC406
00087340453172965424        ADRIANA DEMETRIO LARA              MS3400190         201408242100100000021169D08234263552825C688E5BA382CBEC000000009000000000009000000000000000000000000000000000000000N1408000000012                 A99FD84F9B2B7F161FEE0846F9F61143
00059570253134476645        ALOISIO SEGATTO                    MS3400240         2014082421001000000212DF696894950AFEEECBB453E8D6048439000000007000000000007000000000000000000000000000000000000000N1408000000013                 D05C47FB64A8775C072ECBA76C1343DB
00060831944153000741433     RUTE RODRIGUES NOVAES DE OLIVEIRA  MS3400248         2014082421001000000213A8CDC2AD21648BDBEA19937AC79C1050000000005000000000005000000000000000000000000000000000000000N1408000000014                 4E1548FC81AF96F66884C0B743B11147
00000069429111001109604     DAIANA DUARTE GOMES                MS3400262         2014082421001000000214A8F12D2CC89B9F75EB9F40CFCAA750AA000000007000000000007000000000000000000000000000000000000000N1408000000015                 64A660BF52E18E654120F334E0CEBB81
00003097663118001652080     CAMILA MEIRA ANTONIO               MS3400263         2014082421001000000215ECC26B504944BB975C7EA2B68AAD9A99000000009000000000009000000000000000000000000000000000000000N1408000000016                 72F90BE1A5B174CA90D8681562A12FDA
000034785001411683791       THIAGO ALZAMENDES DE MONDE SANTANA MS1400276         20140824210010000002168F66A8EF234D9134EC5108995A7AB386000000007000000000007000000000000000000000000000000000000000N1408000000017                 90B74603F39DC87E3B2DCA4D22136CAB
00000093838166001198916     VANESSA MARINS DUARTE              MS3400292         20140824210010000002176DF14DE5661AA34D1A64C8DA815AD609000000005000000000005000000000000000000000000000000000000000N1408000000018                 C06C89FD67EFE22F019062C99F8362E3
00005078410180103530171     CLEYCIANE APARECIDA SOUTHER        MS3400301         20140824210010000002187A8D74EFF6B06E3081890FFC44084000000000009000000000009000000000000000000000000000000000000000N1408000000019                 8859E3F0D5CFDA342B30316E5CC45CF6
0001768310610012893021      JOSE CARLOS GOMES                  MS3400303         20140824210010000002190D40FBCEF31D489E069FA6C20A499AE3000000012000000000012000000000000000000000000000000000000000N1408000000020                 EEB46F9CD59BD539FD60B0E563B32326
000890014601781037014       MARCOS ALVES PEREIRA               MS3400312         2014082421001000000220D7A4C6846934460C5FCBEFB23B2FB16B000000009000000000009000000000000000000000000000000000000000N1408000000021                 4F2C4D55379FAA421A7DCD856206AAF3
00024976474100385706        APARECIDA MARIA DE BRITO MALAQUIAS MS3400314         201408242100100000022160CDCF39518A179ACEBC395B5E7747C7000000012000000000012000000000000000000000000000000000000000N1408000000022                 7407CE51E9F37E8009F0F4ECA3B101CA
00074056220115001467509     GENISIA MARIA DOS SANTOS           MS3400318         2014082421001000000222074FAE29159390A2E148929DB87AB2CB000000009000000000009000000000000000000000000000000000000000N1408000000023                 4EC00F41FFE81FF52C34E3034FDE33FB
00002262097178000044201     WELLINTON APARECIDO MOREIRA CUSTODIMS3400321         2014082421001000000223DC59EEA163F08C3FA3E1B685818CBEBA000000009000000000009000000000000000000000000000000000000000N1408000000024                 2756E46701F83BF58662698585B9CB97
00099512289172000554611     ELIETE OLIVEIRA DA SILVA GONSALVES MS3400323         2014082421001000000224FB5D59451957A8286C19BF41035AC257000000009000000000009000000000000000000000000000000000000000N1408000000025                 DF77C35F6FCD72909B4C6D6626DF00C0
00028682246104125046        ELZA SOUZA  LIMA YANO              MS3400324         2014082421001000000225BEFB6FAAE6D3DF00A041668C2189A5FF000000012000000000012000000000000000000000000000000000000000N1408000000026                 57A3B7ECB86A927B8F4F90571A6DC39C
00031305571134298525203     ANISIO ALVES ARAUJO                MS3400326         201408242100100000022628DDC70ED019F8F0577B4FE3130740E6000000009000000000009000000000000000000000000000000000000000N1408000000027                 CB7E889425FA8C9C47A4461CC730A4B1
00090029135168000775740     MATHEUS TEODORO SIQUEIRA           MS3400327         2014082421001000000227208634D2208675EF86841C657D1B3732000000007000000000007000000000000000000000000000000000000000N1408000000028                 CFDE78F423DAFA281C064701828FF141
00054401062191596055        EDER SAVIO MARTINS CAVALARI        MS3400329         20140824210010000002285A728C138FA8AEC6CB8019844BEA6A98000000012000000000012000000000000000000000000000000000000000N1408000000029                 5B92D482E8F94606B94493D11E064D31
00093326610149001184543     LEISE MARA FIGUEIRA REZENDE        MS3400330         201408242100100000022933D4C7A020D4F4322DBA4973AFAC8AF5000000009000000000009000000000000000000000000000000000000000N1408000000030                 2B59A03EB8973626C49B99C82F6C3653
000017218401091147638       JOAO CARLOS DE SOUZA NOVAES        MS3400337         2014082421001000000230B4169A01766FFD4E831A26E3327C386E000000007000000000007000000000000000000000000000000000000000N1408000000031                 2BF177F7448E3B37811F49BEAC863697
00000454180128001113255     MARIA SHEILA BRAGA DA COSTA        MS3400344         2014082421001000000231AEC259B80F4E586362D9D0BD888BD303000000009000000000009000000000000000000000000000000000000000N1408000000032                 576381A2B2DF98A519BCDA2DE46902EF
000007528101541096179       ALEX DE OLIVEIRA SANTOS            MS3400345         2014082421001000000232DF54D39FF432803D17FBBB75E6D0C3BD000000012000000000012000000000000000000000000000000000000000N1408000000033                 E8A94577C31EA4212652DB4789ADF57F
000022965051121542763       MULLER BATISTA DE CARVALHO         MS3400346         2014082421001000000233765184F3B14C3B3930A04BA49B2A01BE000000009000000000009000000000000000000000000000000000000000N1408000000034                 4395479FF7F0D8A68B162168AEC0A61A
00039106136168298517        MAURO CASSAL MOREIRA               MS3400347         2014082421001000000234E2C945B91080BD13BEB5639DC07E4CBF000000009000000000009000000000000000000000000000000000000000N1408000000035                 0F8F5DC3B65927BAA6817048279BB6D5
00000010520120001587718     JACIANA MARIA DO NASCIMENTO DOS SANMS3400348         2014082421001000000235B62745C7E9CBB35B543F9FB7D6F787A4000000007000000000007000000000000000000000000000000000000000N1408000000037                 80569E9D937BF0722C46127200E7DAD9
00045678847104921997        ABADIA RODRIGUES NOGUEIRA          MS3400351         201408242100100000023689B901D16750D2CC0F89D7DA943901BA000000010000000000010000000000000000000000000000000000000000N1408000000038                 E5C5ACB81D732D4DC1E2DE2CD0784D19
00004457910120001684400     WELINTON DEL SANTE FERANDNES       MS3400352         2014082421001000000237CC880A35B28780CA88647A759CAF3680000000010000000000010000000000000000000000000000000000000000N1408000000039                 2F6D398DF0D60B41DCCC4CE18CE57005
000590835651491066466       CLAUDIO DE FREITAS MARTINS         RJ3400353         201408242100100000023873EF64AB1FC8372C66BB62DCD9570E6B000000005000000000005000000000000000000000000000000000000000N1408000000040                 56A8DBF6B897B3B91E6861E65F0CD6B5
00060959347100763457        LUCIENE OLIVEIRA GONCALVES         MS3400354         2014082421001000000239D8C374E2FB2CAE49E6219983540884B9000000009000000000009000000000000000000000000000000000000000N1408000000041                 DFFB5829C11946A8AD27EF1B7572EF8F
00059245123120401315        NATALINA APARECIDA GONZAGA RIBEIRO MS340051          20140824210010000002400BAC3B37C85E7D306271EA97B60C031C000000010000000000010000000000000000000000000000000000000000N1408000000042                 7152F0DCD83A55C8557608B53F27B3E9
