00063694590110711895        UBIRAJARA BORGES DANIEL            MS3400103         20140824210010000000014A7E1B21C4860C984FBE4D2736A5D8CB000000007000000000007000000000000000000000000000000000000000N1408000000001                 65E32DE9E2ADAB621CE1BBB526318C8E
00051876108134560144        GERSON RODRIGUES NOGUEIRA          MS340010          2014082421001000000002BAA7D6B493EAE9B4BDF699DDB91A47B0000000005000000000005000000000000000000000000000000000000000N1408000000002                 694D92532F02500483D653BEADD5DF37
00051943220115597918        MARIA APARECIDA MARINHO            MS3400123         20140824210010000000031FEF541D2C1C76EA51DC622983011CED000000009000000000009000000000000000000000000000000000000000N1408000000003                 385B759148CC0BFED4E8D57FEDE70967
00012118738897001811735     ROSA MARIA RODRIGUES RIBEIRO       MS3400125         20140824210010000000042683E83DEE84C9C0D72B7580F366E6D5000000004000000000004000000000000000000000000000000000000000N1408000000004                 310F1AA91B1D7CBECDEB6FC36F67EDBB
00059620455134000739250     SANDRA REGINA DA SILVA GOMES       MS340012          2014082421001000000005A9048A231A7F73E970C68EF82539759E000000005000000000005000000000000000000000000000000000000000N1408000000005                 A04380B82B2EF18B961F6FDDB1A068EC
00006367348115161172        PERICLES ANTONIO BARBOZA           MS3400134         20140824210010000000064BC901AA056BE0F94F1C79B7D3FD454B000000009000000000009000000000000000000000000000000000000000N1408000000006                 45E84564D2F037B1D102567EDD8875A5
00051868563120642613        LUCINEIDE CHAGAS DA SILVA          MS3400136         20140824210010000000077AA340E6F8880A2918E785BDB5800389000000005000000000005000000000000000000000000000000000000000N1408000000007                 49C0675ADD21F33D97B60EBC4ADD49AE
00002036433138001491790     THIAGO APARECIDO DA SILVA          MS3400142         2014082421001000000008F0831BAED5E43798DAFE92BBC6F464B8000000010000000000010000000000000000000000000000000000000000N1408000000008                 7631AACDB3A85A54FBBC54ECF1DCC9F4
00040844552100815397        HELDER ARRUDA AMARAL               MS3400152         2014082421001000000009B3A427AE3E2D32D893B9C46354EA586E000000007000000000007000000000000000000000000000000000000000N1408000000009                 E30C6AA6CA52924138C8CEF0D46085C4
000000410161811126675       HERCULES ALVES ARRUDA              MS3400165         2014082421001000000010F40C7695EC1A28E45CEE71EF37B92040000000009000000000009000000000000000000000000000000000000000N1408000000010                 559AEEEAF5BB6FFE32622936AD52F202
00087066645120000948117     ROSENILDA LIMA DA SILVA            MS3400167         2014082421001000000011F9E85A2D6CF37FA9854280A520DF9FFC000000007000000000007000000000000000000000000000000000000000N1408000000011                 D2877626A95B8E51FBA01C87F837FA33
00087340453172965424        ADRIANA DEMETRIO LARA              MS3400190         2014082421001000000012863B8297E826BA9D6E84B71391065E94000000009000000000009000000000000000000000000000000000000000N1408000000012                 358BC1033CA77CCDF6B3D6A7EBD45C8B
00059570253134476645        ALOISIO SEGATTO                    MS3400240         2014082421001000000013541E22B94FD100613F5539EA73991133000000007000000000007000000000000000000000000000000000000000N1408000000013                 4D973B549E9709ACCBF6EA32D8A4BBBE
00060831944153000741433     RUTE RODRIGUES NOVAES DE OLIVEIRA  MS3400248         20140824210010000000147912C4684EF0385714A83E3A889B1D1E000000005000000000005000000000000000000000000000000000000000N1408000000014                 130CC9BDAC6AFF159836C117719B954B
00000069429111001109604     DAIANA DUARTE GOMES                MS3400262         2014082421001000000015A710A6303E1E62C4E89A9CF18B5B765C000000007000000000007000000000000000000000000000000000000000N1408000000015                 F2D96505F78BA2CC7B31DE09899AD6B9
00003097663118001652080     CAMILA MEIRA ANTONIO               MS3400263         2014082421001000000016931FC9B205E655199372B01A630ACF78000000009000000000009000000000000000000000000000000000000000N1408000000016                 9FABDD4D71C49BCF29108CC40A6D2B71
000034785001411683791       THIAGO ALZAMENDES DE MONDE SANTANA MS1400276         2014082421001000000017D51D748FDBFC1A3EDED9BAC7551473CF000000007000000000007000000000000000000000000000000000000000N1408000000017                 DE76DC4E5651522F592E8341080C97E7
00000093838166001198916     VANESSA MARINS DUARTE              MS3400292         2014082421001000000018E1940348CA2A4DE7D77608C40EBBDAC6000000005000000000005000000000000000000000000000000000000000N1408000000018                 04A1F4E4452505E9DDCE9C7556A4C6DD
00005078410180103530171     CLEYCIANE APARECIDA SOUTHER        MS3400301         2014082421001000000019CA2CF0FE55EB41C8C4EA93276AAC7C92000000009000000000009000000000000000000000000000000000000000N1408000000019                 6B0B56139A453E5AA1118E57418ED139
0001768310610012893021      JOSE CARLOS GOMES                  MS3400303         20140824210010000000207421F0A80ED7B14D30E89BD46F1B89EC000000012000000000012000000000000000000000000000000000000000N1408000000020                 8A11400A88FBBD94DEBC491149603C5F
000890014601781037014       MARCOS ALVES PEREIRA               MS3400312         20140824210010000000214FDA2D87C92511D27D00C02650C0B8B7000000009000000000009000000000000000000000000000000000000000N1408000000021                 E6DE923456F331D5CDC184CA3E4B2F11
00024976474100385706        APARECIDA MARIA DE BRITO MALAQUIAS MS3400314         20140824210010000000223DFFB161D237490CC8597061010EB7ED000000012000000000012000000000000000000000000000000000000000N1408000000022                 B4F3BF89E365DC3E51689DBBE035CB38
00074056220115001467509     GENISIA MARIA DOS SANTOS           MS3400318         2014082421001000000023D595A895D9B23221C08C134E97C2C80E000000009000000000009000000000000000000000000000000000000000N1408000000023                 6D7E67D2E435A90D1945FD7CC786AEB8
00002262097178000044201     WELLINTON APARECIDO MOREIRA CUSTODIMS3400321         20140824210010000000247AFDD8D828E5F3C7BB6D00FFF488D2C6000000009000000000009000000000000000000000000000000000000000N1408000000024                 6C9C0126374AC8099BA8EDB76147BB3C
00099512289172000554611     ELIETE OLIVEIRA DA SILVA GONSALVES MS3400323         2014082421001000000025ECBDA1003DCFF2DB88201DE9098B1012000000009000000000009000000000000000000000000000000000000000N1408000000025                 E94CBF59299EC21DB4D8432745C5AD29
00028682246104125046        ELZA SOUZA  LIMA YANO              MS3400324         201408242100100000002665493390E551D95BD2599E695767AF05000000012000000000012000000000000000000000000000000000000000N1408000000026                 8138ED050452092EF9610442D8F0DFCD
00031305571134298525203     ANISIO ALVES ARAUJO                MS3400326         201408242100100000002742DBEA725B81AC3C3CF15729A07500E3000000009000000000009000000000000000000000000000000000000000N1408000000027                 45CD858F191CA5A7CF659CDE7E7875FC
00090029135168000775740     MATHEUS TEODORO SIQUEIRA           MS3400327         2014082421001000000028B1030B91AF619C150FC1A7CE89EA0DA5000000007000000000007000000000000000000000000000000000000000N1408000000028                 90A17B062A6CFB8E077977603FAD6C42
00054401062191596055        EDER SAVIO MARTINS CAVALARI        MS3400329         20140824210010000000299D1BAF791B2EDD5E3245292D12FBF204000000012000000000012000000000000000000000000000000000000000N1408000000029                 140DA7147E80063DFF19D2EE3AF1E75A
00093326610149001184543     LEISE MARA FIGUEIRA REZENDE        MS3400330         2014082421001000000030EF8C1D03B3DB136255E68FCA0892E722000000009000000000009000000000000000000000000000000000000000N1408000000030                 130B96F63BFEA1F153D02360ADDDF588
000017218401091147638       JOAO CARLOS DE SOUZA NOVAES        MS3400337         2014082421001000000031BA00D8DB126E85EE27515ADEA0CF1191000000007000000000007000000000000000000000000000000000000000N1408000000031                 713C4E43295B7CA88EE3741A4901B426
00000454180128001113255     MARIA SHEILA BRAGA DA COSTA        MS3400344         20140824210010000000320E2B34AC0C48E319166F21ABC0CE24C0000000009000000000009000000000000000000000000000000000000000N1408000000032                 E3DB5BCA5E484702C2D5510412437FC5
000007528101541096179       ALEX DE OLIVEIRA SANTOS            MS3400345         2014082421001000000033C318EAEDE28C6784675FA8988BA45618000000012000000000012000000000000000000000000000000000000000N1408000000033                 480972750488FEC40D4251D20DC3D9A2
000022965051121542763       MULLER BATISTA DE CARVALHO         MS3400346         2014082421001000000034205A603EF62B5251D684E788370DB030000000009000000000009000000000000000000000000000000000000000N1408000000034                 88B2EC7E6FB1C4E6262C7E9C675C3AF6
00039106136168298517        MAURO CASSAL MOREIRA               MS3400347         2014082421001000000035D0976B4ADF1AE16BB4CED42E24B73ACD000000009000000000009000000000000000000000000000000000000000N1408000000035                 849D2BA06694028A1CAAB4003792E40D
00000010520120001587718     JACIANA MARIA DO NASCIMENTO DOS SANMS3400348         20140824210010000000360530D91BDB7C621FED72F5E8A5A4D094000000007000000000007000000000000000000000000000000000000000N1408000000037                 0A4CFF7E2E7F3252DD7631F33879C1B8
00045678847104921997        ABADIA RODRIGUES NOGUEIRA          MS3400351         201408242100100000003798A21536AD8A4F985042F35E55F24084000000010000000000010000000000000000000000000000000000000000N1408000000038                 06D53522900994BC1DB320133923856E
00004457910120001684400     WELINTON DEL SANTE FERANDNES       MS3400352         201408242100100000003814D5CD10A4C6BE255DF4B3376814596C000000010000000000010000000000000000000000000000000000000000N1408000000039                 246951355262E965053BD356A99B103D
000590835651491066466       CLAUDIO DE FREITAS MARTINS         RJ3400353         2014082421001000000039ED9EE6293FC198AFF4466F8A3566B61A000000005000000000005000000000000000000000000000000000000000N1408000000040                 E7180E924D87EE4F674810D32B8D95F5
00060959347100763457        LUCIENE OLIVEIRA GONCALVES         MS3400354         20140824210010000000408307CA1237FBE2D448E7CEDE88B3F4D8000000009000000000009000000000000000000000000000000000000000N1408000000041                 4F440C5EE3180F7C6DDA3B6F7DEE66E4
00059245123120401315        NATALINA APARECIDA GONZAGA RIBEIRO MS340051          2014082421001000000041D6EA252AFBB1400EAA6180EE0F6EFA9E000000010000000000010000000000000000000000000000000000000000N1408000000042                 DD73BD57FA43A35568A919A4204383F1
