00063694590110MS340020140324210010000000015307001104       SERVICO DE ACESSO A INTERNET            0104UN    0000000100000000001000000000070000000000000000000000000000000070000000000000000000000000000000000000000N1403     B088F8B63EF1E51D10FDF616DEB73F16
00051876108134MS340020140324210010000000025307001104       SERVICO DE ACESSO A INTERNET            0104UN    0000000100000000001000000000050000000000000000000000000000000050000000000000000000000000000000000000000N1403     EBE9D7197ED5D16B69C22A31CE354785
00051943220115MS340020140324210010000000035307001104       SERVICO DE ACESSO A INTERNET            0104UN    0000000100000000001000000000090000000000000000000000000000000090000000000000000000000000000000000000000N1403     BD90969C48064F508AF54BB1BD9669B8
00012118738897MS340020140324210010000000045307001104       SERVICO DE ACESSO A INTERNET            0104UN    0000000100000000001000000000040000000000000000000000000000000040000000000000000000000000000000000000000N1403     62BF0032B4302D1F9F7217A2344B5D23
00059620455134MS340020140324210010000000055307001104       SERVICO DE ACESSO A INTERNET            0104UN    0000000100000000001000000000050000000000000000000000000000000050000000000000000000000000000000000000000N1403     E2C21D3B0AA65E7A0C6B0A8FF0EBE477
00006367348115MS340020140324210010000000065307001104       SERVICO DE ACESSO A INTERNET            0104UN    0000000100000000001000000000090000000000000000000000000000000090000000000000000000000000000000000000000N1403     EF8DE5E27C591DA54233F5E63F8DB050
00051868563120MS340020140324210010000000075307001104       SERVICO DE ACESSO A INTERNET            0104UN    0000000100000000001000000000050000000000000000000000000000000050000000000000000000000000000000000000000N1403     BEC990D7FB5E4CFB80EED33FF33626D5
00002036433138MS340020140324210010000000085307001104       SERVICO DE ACESSO A INTERNET            0104UN    0000000100000000001000000000100000000000000000000000000000000100000000000000000000000000000000000000000N1403     B76251EDFFA2D8BE4DA9575B9CF91405
00040844552100MS340020140324210010000000095307001104       SERVICO DE ACESSO A INTERNET            0104UN    0000000100000000001000000000070000000000000000000000000000000070000000000000000000000000000000000000000N1403     5CC813C9EA69EF0BDD05E93059BE8103
00000041016181MS340020140324210010000000105307001104       SERVICO DE ACESSO A INTERNET            0104UN    0000000100000000001000000000090000000000000000000000000000000090000000000000000000000000000000000000000N1403     595643B66F28144BCAC37B7649A7AE35
00087066645120MS340020140324210010000000115307001104       SERVICO DE ACESSO A INTERNET            0104UN    0000000100000000001000000000070000000000000000000000000000000070000000000000000000000000000000000000000N1403     7C5C89EBA33F3D276490E75AD8D215AB
00087340453172MS340020140324210010000000125307001104       SERVICO DE ACESSO A INTERNET            0104UN    0000000100000000001000000000090000000000000000000000000000000090000000000000000000000000000000000000000N1403     10DDF50EFB99A7C574B69352BB8EDE40
00059570253134MS340020140324210010000000135307001104       SERVICO DE ACESSO A INTERNET            0104UN    0000000100000000001000000000070000000000000000000000000000000070000000000000000000000000000000000000000N1403     8B1F3C9D5E5F45CB2E5C850350FD82B0
00060831944153MS340020140324210010000000145307001104       SERVICO DE ACESSO A INTERNET            0104UN    0000000100000000001000000000050000000000000000000000000000000050000000000000000000000000000000000000000N1403     BF246F624DA124558BE1A69647067A99
00000069429111MS340020140324210010000000155307001104       SERVICO DE ACESSO A INTERNET            0104UN    0000000100000000001000000000070000000000000000000000000000000070000000000000000000000000000000000000000N1403     FBA282B99D8B3E98187A51E0F0026F06
00003097663118MS340020140324210010000000165307001104       SERVICO DE ACESSO A INTERNET            0104UN    0000000100000000001000000000090000000000000000000000000000000090000000000000000000000000000000000000000N1403     763317E5CBE078B453923F982E92D801
00003478500141MS140020140324210010000000175303001104       SERVICO DE ACESSO A INTERNET            0104UN    0000000100000000001000000000070000000000000000000000000000000070000000000000000000000000000000000000000N1403     B63D4EB2B5874F7941FD2CEBAC63CC72
00000093838166MS340020140324210010000000185307001104       SERVICO DE ACESSO A INTERNET            0104UN    0000000100000000001000000000050000000000000000000000000000000050000000000000000000000000000000000000000N1403     E455A12CB8F8440A08A30691F89218C4
00005078410180MS340020140324210010000000195307001104       SERVICO DE ACESSO A INTERNET            0104UN    0000000100000000001000000000090000000000000000000000000000000090000000000000000000000000000000000000000N1403     042BE7005C5D577F1C0958446215F538
00017683106100MS340020140324210010000000205307001104       SERVICO DE ACESSO A INTERNET            0104UN    0000000100000000001000000000120000000000000000000000000000000120000000000000000000000000000000000000000N1403     23A625F84E2750C70750A999859845EB
00089001460178MS340020140324210010000000215307001104       SERVICO DE ACESSO A INTERNET            0104UN    0000000100000000001000000000090000000000000000000000000000000090000000000000000000000000000000000000000N1403     4C8FE9AF4C87E05F943F2045465A432D
00024976474100MS340020140324210010000000225307001104       SERVICO DE ACESSO A INTERNET            0104UN    0000000100000000001000000000120000000000000000000000000000000120000000000000000000000000000000000000000N1403     0F7FBBF89D2B43FC6DC58ECF0B853D13
00074056220115MS340020140324210010000000235307001104       SERVICO DE ACESSO A INTERNET            0104UN    0000000100000000001000000000090000000000000000000000000000000090000000000000000000000000000000000000000N1403     9B7E2DFD1AC6DDA6ACD918F266993E7B
00002262097178MS340020140324210010000000245307001104       SERVICO DE ACESSO A INTERNET            0104UN    0000000100000000001000000000090000000000000000000000000000000090000000000000000000000000000000000000000N1403     891B9E4FD725D5CDAA2CFEEF142334F6
00099512289172MS340020140324210010000000255307001104       SERVICO DE ACESSO A INTERNET            0104UN    0000000100000000001000000000090000000000000000000000000000000090000000000000000000000000000000000000000N1403     7AAC49975C8F5AE2E95F9E65284C5F25
00028682246104MS340020140324210010000000265307001104       SERVICO DE ACESSO A INTERNET            0104UN    0000000100000000001000000000120000000000000000000000000000000120000000000000000000000000000000000000000N1403     7D43C353C07E60B2B6EFAD25A94AD117
00031305571134MS340020140324210010000000275307001104       SERVICO DE ACESSO A INTERNET            0104UN    0000000100000000001000000000090000000000000000000000000000000090000000000000000000000000000000000000000N1403     039E7227DC4E3F7DD4211D16907F5162
00090029135168MS340020140324210010000000285307001104       SERVICO DE ACESSO A INTERNET            0104UN    0000000100000000001000000000070000000000000000000000000000000070000000000000000000000000000000000000000N1403     C8324F820D15F36F97B7ABCC547FE1AE
00054401062191MS340020140324210010000000295307001104       SERVICO DE ACESSO A INTERNET            0104UN    0000000100000000001000000000120000000000000000000000000000000120000000000000000000000000000000000000000N1403     C34220D04495566923C6CA69F2D073B1
00093326610149MS340020140324210010000000305307001104       SERVICO DE ACESSO A INTERNET            0104UN    0000000100000000001000000000090000000000000000000000000000000090000000000000000000000000000000000000000N1403     907641751CB609AE174F1DF33AA1B2D5
00001721840109MS340020140324210010000000315307001104       SERVICO DE ACESSO A INTERNET            0104UN    0000000100000000001000000000070000000000000000000000000000000070000000000000000000000000000000000000000N1403     7B6833772072BA802BE008D574E5CF70
00000454180128MS340020140324210010000000325307001104       SERVICO DE ACESSO A INTERNET            0104UN    0000000100000000001000000000090000000000000000000000000000000090000000000000000000000000000000000000000N1403     4DAAD42C0F2FD23761865D22D6B3990B
00000752810154MS340020140324210010000000335307001104       SERVICO DE ACESSO A INTERNET            0104UN    0000000100000000001000000000120000000000000000000000000000000120000000000000000000000000000000000000000N1403     91E5668F6FA7E7A69733BB331D8461A9
00002296505112MS340020140324210010000000345307001104       SERVICO DE ACESSO A INTERNET            0104UN    0000000100000000001000000000090000000000000000000000000000000090000000000000000000000000000000000000000N1403     4925BEC6250417BEE8A36BF370A69D19
00039106136168MS340020140324210010000000355307001104       SERVICO DE ACESSO A INTERNET            0104UN    0000000100000000001000000000018000000000000000000000000000000018000000000000000000000000000000000000000N1403     66080207EB88E174F93250FFE10A371A
00039106136168MS340020140324210010000000355307002104       SERVICO DE ACESSO A INTERNET            0104UN    0000000100000000001000000000072000000000000000000000000000000072000000000000000000000000000000000000000N1403     98FCAF2F141DF423F79FE642D3392483
00000010520120MS340020140324210010000000365307001104       SERVICO DE ACESSO A INTERNET            0104UN    0000000100000000001000000000070000000000000000000000000000000070000000000000000000000000000000000000000N1403     2B067DCDD087C86AAFED2E116C256D33
00045678847104MS340020140324210010000000375307001104       SERVICO DE ACESSO A INTERNET            0104UN    0000000100000000001000000000100000000000000000000000000000000100000000000000000000000000000000000000000N1403     3A61BEB811B5BB948239491793654EF6
00004457910120MS340020140324210010000000385307001104       SERVICO DE ACESSO A INTERNET            0104UN    0000000100000000001000000000100000000000000000000000000000000100000000000000000000000000000000000000000N1403     5475F93336D86BDB7F38E88F8D2E19A0
00059083565149RJ340020140324210010000000395307001104       SERVICO DE ACESSO A INTERNET            0104UN    0000000100000000001000000000050000000000000000000000000000000050000000000000000000000000000000000000000N1403     6F59B3EF0E6298C8E88211F250FA8DBC
00060959347100MS340020140324210010000000405307001104       SERVICO DE ACESSO A INTERNET            0104UN    0000000100000000001000000000090000000000000000000000000000000090000000000000000000000000000000000000000N1403     B502CA327C25341FE3DAB28373FEB407
00059245123120MS340020140324210010000000415307001104       SERVICO DE ACESSO A INTERNET            0104UN    0000000100000000001000000000100000000000000000000000000000000100000000000000000000000000000000000000000N1403     70BE94770569349E5E7C0AF073834750
