00063694590110MS340020140625210010000000015307001104       MENSALIDADE DO PLANO 1MEGA              0104UN    0000000100000000001000000000070000000000000000000000000000000070000000000000000000000000000000000000000N1406     950D31A131181382949291CAAFB2459A
00051876108134MS340020140625210010000000025307001104       MENSALIDADE DO PLANO PROM_1/50          0104UN    0000000100000000001000000000050000000000000000000000000000000050000000000000000000000000000000000000000N1406     6E85374B35521412839CB64870D3F39B
00051943220115MS340020140625210010000000035307001104       MENSALIDADE DO PLANO 2MEGA              0104UN    0000000100000000001000000000090000000000000000000000000000000090000000000000000000000000000000000000000N1406     799D3FB2F9BF1562083EF430E4A62914
00012118738897MS340020140625210010000000045307001104       MENSALIDADE DO PLANO 600K               0104UN    0000000100000000001000000000040000000000000000000000000000000040000000000000000000000000000000000000000N1406     7CC756C7C48D1EC0331B777BDE25DE69
00059620455134MS340020140625210010000000055307001104       MENSALIDADE DO PLANO 2_POR_500          0104UN    0000000100000000001000000000050000000000000000000000000000000050000000000000000000000000000000000000000N1406     E211CA680601ACA697ABE1282EB3EC9B
00006367348115MS340020140625210010000000065307001104       MENSALIDADE DO PLANO 2_POR_500          0104UN    0000000100000000001000000000090000000000000000000000000000000090000000000000000000000000000000000000000N1406     6B262B027E3C4328A5486C18C75C9751
00051868563120MS340020140625210010000000075307001104       MENSALIDADE DO PLANO 600K               0104UN    0000000100000000001000000000050000000000000000000000000000000050000000000000000000000000000000000000000N1406     AA12BF6458FC56D1EFD429CEBAD8140E
00002036433138MS340020140625210010000000085307001104       MENSALIDADE DO PLANO PROM_3/2           0104UN    0000000100000000001000000000100000000000000000000000000000000100000000000000000000000000000000000000000N1406     08028EAAEC3FAD747F33A5CBC66862BC
00040844552100MS340020140625210010000000095307001104       MENSALIDADE DO PLANO PROM_2/1           0104UN    0000000100000000001000000000070000000000000000000000000000000070000000000000000000000000000000000000000N1406     706F05E57A59CAE67EEBF8E22A9F8BA7
00000041016181MS340020140625210010000000105307001104       MENSALIDADE DO PLANO PROM_3/2           0104UN    0000000100000000001000000000090000000000000000000000000000000090000000000000000000000000000000000000000N1406     2AAD2409D4AE6FF0827B0A31E6453B30
00087066645120MS340020140625210010000000115307001104       MENSALIDADE DO PLANO 1MEGA              0104UN    0000000100000000001000000000070000000000000000000000000000000070000000000000000000000000000000000000000N1406     6D83621075AC76BFBBEC9CB7619A8578
00087340453172MS340020140625210010000000125307001104       MENSALIDADE DO PLANO 2MEGA              0104UN    0000000100000000001000000000090000000000000000000000000000000090000000000000000000000000000000000000000N1406     B32B55B918C74C629ED5AACB7A3D4E35
00059570253134MS340020140625210010000000135307001104       MENSALIDADE DO PLANO 1MEGA              0104UN    0000000100000000001000000000070000000000000000000000000000000070000000000000000000000000000000000000000N1406     A438AA85AAEB6489E0434740B5539052
00060831944153MS340020140625210010000000145307001104       MENSALIDADE DO PLANO 600K               0104UN    0000000100000000001000000000050000000000000000000000000000000050000000000000000000000000000000000000000N1406     92F8DF339153B365E627825EAD5C6606
00000069429111MS340020140625210010000000155307001104       MENSALIDADE DO PLANO PROM_2/1           0104UN    0000000100000000001000000000070000000000000000000000000000000070000000000000000000000000000000000000000N1406     88D777D5AF3A6E8D56D7F38498B66C57
00003097663118MS340020140625210010000000165307001104       MENSALIDADE                             0104UN    0000000100000000001000000000090000000000000000000000000000000090000000000000000000000000000000000000000N1406     1783C69350B37B1E6C17107ADCC503AC
00003478500141MS140020140625210010000000175303001104       MENSALIDADE DO PLANO 1MEGA              0104UN    0000000100000000001000000000070000000000000000000000000000000070000000000000000000000000000000000000000N1406     782184B7AE749A4EC1CF9D493FE3A5B8
00000093838166MS340020140625210010000000185307001104       MENSALIDADE DO PLANO 500K               0104UN    0000000100000000001000000000050000000000000000000000000000000050000000000000000000000000000000000000000N1406     D8BDF59A8A6C2585A1B865C5F360BFC8
00005078410180MS340020140625210010000000195307001104       MENSALIDADE DO PLANO PROM_3/2           0104UN    0000000100000000001000000000090000000000000000000000000000000090000000000000000000000000000000000000000N1406     6FE33D49F32A00DFB01C27A5D4569995
00084671114100MS340020140625210010000000205307001104       MENSALIDADE DO PLANO 2MEGA              0104UN    0000000100000000001000000000090000000000000000000000000000000090000000000000000000000000000000000000000N1406     175DE11AD044FB0FDD77DF79B19A622F
00017683106100MS340020140625210010000000215307001104       MENSALIDADE DO PLANO PROM_5/3           0104UN    0000000100000000001000000000120000000000000000000000000000000120000000000000000000000000000000000000000N1406     3882C906C3F908B3CAE1BB3CF9CF0CC4
00089001460178MS340020140625210010000000225307001104       MENSALIDADE DO PLANO 2MEGA              0104UN    0000000100000000001000000000090000000000000000000000000000000090000000000000000000000000000000000000000N1406     984A356686224240847C8F36825685E1
00024976474100MS340020140625210010000000235307001104       MENSALIDADE DO PLANO PROM_5/3           0104UN    0000000100000000001000000000120000000000000000000000000000000120000000000000000000000000000000000000000N1406     727D24A4DDC0CF0A6B6A24166A11335D
00074056220115MS340020140625210010000000245307001104       MENSALIDADE DO PLANO 2MEGA              0104UN    0000000100000000001000000000090000000000000000000000000000000090000000000000000000000000000000000000000N1406     24E672776007F3788B4673481809687D
00002262097178MS340020140625210010000000255307001104       MENSALIDADE DO PLANO 2MEGA              0104UN    0000000100000000001000000000090000000000000000000000000000000090000000000000000000000000000000000000000N1406     28AF0029CB4481A3E254935FBCA30164
00099512289172MS340020140625210010000000265307001104       MENSALIDADE DO PLANO PROM_3/2           0104UN    0000000100000000001000000000090000000000000000000000000000000090000000000000000000000000000000000000000N1406     DFDB4BFAA6A9C894D5EF01F9BAFDB955
00028682246104MS340020140625210010000000275307001104       MENSALIDADE DO PLANO PROM_5/3           0104UN    0000000100000000001000000000120000000000000000000000000000000120000000000000000000000000000000000000000N1406     C26E26A74FE6D062F0F77D10B425E6A3
00031305571134MS340020140625210010000000285307001104       MENSALIDADE DO PLANO PROM_3/2           0104UN    0000000100000000001000000000090000000000000000000000000000000090000000000000000000000000000000000000000N1406     220252C0725F41172E1866FB8B848281
00090029135168MS340020140625210010000000295307001104       MENSALIDADE DO PLANO PROM_2/1           0104UN    0000000100000000001000000000070000000000000000000000000000000070000000000000000000000000000000000000000N1406     BFFAD8151F48D3E5B6BB1421837ACB5E
00054401062191MS340020140625210010000000305307001104       MENSALIDADE DO PLANO PROM_5/3           0104UN    0000000100000000001000000000120000000000000000000000000000000120000000000000000000000000000000000000000N1406     C3BEDE4F6AB1E28BABA41D4892027A78
00093326610149MS340020140625210010000000315307001104       MENSALIDADE DO PLANO PROM_3/2           0104UN    0000000100000000001000000000090000000000000000000000000000000090000000000000000000000000000000000000000N1406     CF928A89A9DEABF0913CCDDABB0C4F27
00001721840109MS340020140625210010000000325307001104       MENSALIDADE DO PLANO 1MEGA              0104UN    0000000100000000001000000000070000000000000000000000000000000070000000000000000000000000000000000000000N1406     4F5174A3B7B9C1C64816F988FA200D43
00000454180128MS340020140625210010000000335307001104       MENSALIDADE DO PLANO PROM_3/2           0104UN    0000000100000000001000000000090000000000000000000000000000000090000000000000000000000000000000000000000N1406     893B853E8F4A38E39532A25A4506857B
00000752810154MS340020140625210010000000345307001104       MENSALIDADE DO PLANO PROM_5/3           0104UN    0000000100000000001000000000120000000000000000000000000000000120000000000000000000000000000000000000000N1406     4598EAB052B864182D1C514FF92BFA2D
00002296505112MS340020140625210010000000355307001104       MENSALIDADE DO PLANO PROM_3/2           0104UN    0000000100000000001000000000090000000000000000000000000000000090000000000000000000000000000000000000000N1406     52D349EAEE712A9F50169965E86A1582
00039106136168MS340020140625210010000000365307001104       MENSALIDADE DO PLANO PROM_5/3           0104UN    0000000100000000001000000000072000000000000000000000000000000072000000000000000000000000000000000000000N1406     E418BF85AB480423B89701C838C7EE0A
00000010520120MS340020140625210010000000375307001104       MENSALIDADE DO PLANO PROM_2/1           0104UN    0000000100000000001000000000070000000000000000000000000000000070000000000000000000000000000000000000000N1406     EA945A6199D2F911631A298A01374344
00045678847104MS340020140625210010000000385307001104       MENSALIDADE DO PLANO PROM_5/3           0104UN    0000000100000000001000000000100000000000000000000000000000000100000000000000000000000000000000000000000N1406     25C02D1B1BE10A547B973051FCA79B5A
00004457910120MS340020140625210010000000395307001104       MENSALIDADE DO PLANO PROM_5/3           0104UN    0000000100000000001000000000100000000000000000000000000000000100000000000000000000000000000000000000000N1406     D6BE220B99AF09F5E50F199DFFA05BBA
00059083565149RJ340020140625210010000000405307001104       MENSALIDADE DO PLANO 2_POR_500          0104UN    0000000100000000001000000000050000000000000000000000000000000050000000000000000000000000000000000000000N1406     AF780A7DD9E73D21142A3BA7C615BAA3
00060959347100MS340020140625210010000000415307001104       MENSALIDADE DO PLANO PROM_3/2           0104UN    0000000100000000001000000000090000000000000000000000000000000090000000000000000000000000000000000000000N1406     E336C75EA39D90639A2F06E8125F4AFA
00059245123120MS340020140625210010000000425307001104       MENSALIDADE DO PLANO PROM_1/50          0104UN    0000000100000000001000000000100000000000000000000000000000000100000000000000000000000000000000000000000N1406     A06B3ED1F174E1BEED8BBCB7BEE4FF24
