00063694590110711895        UBIRAJARA BORGES DANIEL            MS3400103         20140324210010000000014A7E1B21C4860C984FBE4D2736A5D8CB000000007000000000007000000000000000000000000000000000000000N1403000000001                 31229EBF4DBFA03A35EE7D87EF995855
00051876108134560144        GERSON RODRIGUES NOGUEIRA          MS340010          2014032421001000000002BAA7D6B493EAE9B4BDF699DDB91A47B0000000005000000000005000000000000000000000000000000000000000N1403000000002                 021DDE1A927BDB8B048A69B9F19BEF7D
00051943220115597918        MARIA APARECIDA MARINHO            MS3400123         20140324210010000000031FEF541D2C1C76EA51DC622983011CED000000009000000000009000000000000000000000000000000000000000N1403000000003                 14DC6ABA24F8F49D473C1CE7DB95355C
00012118738897001811735     ROSA MARIA RODRIGUES RIBEIRO       MS3400125         20140324210010000000042683E83DEE84C9C0D72B7580F366E6D5000000004000000000004000000000000000000000000000000000000000N1403000000004                 401FAA85E64357CF3489764E9B2807EE
00059620455134000739250     SANDRA REGINA DA SILVA GOMES       MS340012          2014032421001000000005A9048A231A7F73E970C68EF82539759E000000005000000000005000000000000000000000000000000000000000N1403000000005                 A23424D4F23D75A174B6FC79C47785C1
00006367348115161172        PERICLES ANTONIO BARBOZA           MS3400134         20140324210010000000064BC901AA056BE0F94F1C79B7D3FD454B000000009000000000009000000000000000000000000000000000000000N1403000000006                 0C5D2E441EE8AE5A66E5BCE6CD11C1EE
00051868563120642613        LUCINEIDE CHAGAS DA SILVA          MS3400136         20140324210010000000077AA340E6F8880A2918E785BDB5800389000000005000000000005000000000000000000000000000000000000000N1403000000007                 C776BC87B4B0735223DAD2996F952E4C
00002036433138001491790     THIAGO APARECIDO DA SILVA          MS3400142         2014032421001000000008F0831BAED5E43798DAFE92BBC6F464B8000000010000000000010000000000000000000000000000000000000000N1403000000008                 CDA57DFDD0EF859EAD4544BF97122D78
00040844552100815397        HELDER ARRUDA AMARAL               MS3400152         2014032421001000000009B3A427AE3E2D32D893B9C46354EA586E000000007000000000007000000000000000000000000000000000000000N1403000000009                 D213DCBF2272971E7D9C5925479FE0D7
000000410161811126675       HERCULES ALVES ARRUDA              MS3400165         2014032421001000000010F40C7695EC1A28E45CEE71EF37B92040000000009000000000009000000000000000000000000000000000000000N1403000000010                 A7D424B401B059E5C77E1C76A4742565
00087066645120000948117     ROSENILDA LIMA DA SILVA            MS3400167         2014032421001000000011F9E85A2D6CF37FA9854280A520DF9FFC000000007000000000007000000000000000000000000000000000000000N1403000000011                 D5275C3DE081D745DAAA6C310E176B46
00087340453172965424        ADRIANA DEMETRIO LARA              MS3400190         2014032421001000000012863B8297E826BA9D6E84B71391065E94000000009000000000009000000000000000000000000000000000000000N1403000000012                 DC0ABC0EBC0DABFC36FE4EF1E58DDAC9
00059570253134476645        ALOISIO SEGATTO                    MS3400240         2014032421001000000013541E22B94FD100613F5539EA73991133000000007000000000007000000000000000000000000000000000000000N1403000000013                 192064FB1D32D2046D8D57F1A29846F6
00060831944153000741433     RUTE RODRIGUES NOVAES DE OLIVEIRA  MS3400248         20140324210010000000147912C4684EF0385714A83E3A889B1D1E000000005000000000005000000000000000000000000000000000000000N1403000000014                 5FDC4EBC6CD5D1769FD542B3AFA87521
00000069429111001109604     DAIANA DUARTE GOMES                MS3400262         2014032421001000000015A710A6303E1E62C4E89A9CF18B5B765C000000007000000000007000000000000000000000000000000000000000N1403000000015                 8A6C33973715DDAFC3B837A371C63C27
00003097663118001652080     CAMILA MEIRA ANTONIO               MS3400263         2014032421001000000016931FC9B205E655199372B01A630ACF78000000009000000000009000000000000000000000000000000000000000N1403000000016                 B982A9493524379A695854E5992AEC13
000034785001411683791       THIAGO ALZAMENDES DE MONDE SANTANA MS1400276         2014032421001000000017D51D748FDBFC1A3EDED9BAC7551473CF000000007000000000007000000000000000000000000000000000000000N1403000000017                 EE8AD1ECA91AD4D80F2C220B49B81E59
00000093838166001198916     VANESSA MARINS DUARTE              MS3400292         2014032421001000000018E1940348CA2A4DE7D77608C40EBBDAC6000000005000000000005000000000000000000000000000000000000000N1403000000018                 D124EA3B728B4E3346E3067C775B37EF
00005078410180103530171     CLEYCIANE APARECIDA SOUTHER        MS3400301         2014032421001000000019CA2CF0FE55EB41C8C4EA93276AAC7C92000000009000000000009000000000000000000000000000000000000000N1403000000019                 631259BD4E1C60376C01CB666FC2A116
0001768310610012893021      JOSE CARLOS GOMES                  MS3400303         20140324210010000000207421F0A80ED7B14D30E89BD46F1B89EC000000012000000000012000000000000000000000000000000000000000N1403000000020                 FA4AD40AD1391C4DFD60723D9E11A4CE
000890014601781037014       MARCOS ALVES PEREIRA               MS3400312         20140324210010000000214FDA2D87C92511D27D00C02650C0B8B7000000009000000000009000000000000000000000000000000000000000N1403000000021                 9A4A82B38A9894F4283B7A57C7D73F86
00024976474100385706        APARECIDA MARIA DE BRITO MALAQUIAS MS3400314         20140324210010000000223DFFB161D237490CC8597061010EB7ED000000012000000000012000000000000000000000000000000000000000N1403000000022                 867F6284AE735BAE53E0C35D984214CE
00074056220115001467509     GENISIA MARIA DOS SANTOS           MS3400318         2014032421001000000023D595A895D9B23221C08C134E97C2C80E000000009000000000009000000000000000000000000000000000000000N1403000000023                 E7E3B75931F045B1BE4959792692CA50
00002262097178000044201     WELLINTON APARECIDO MOREIRA CUSTODIMS3400321         20140324210010000000247AFDD8D828E5F3C7BB6D00FFF488D2C6000000009000000000009000000000000000000000000000000000000000N1403000000024                 6A04263A1DA0569F9222A609D0B80917
00099512289172000554611     ELIETE OLIVEIRA DA SILVA GONSALVES MS3400323         2014032421001000000025ECBDA1003DCFF2DB88201DE9098B1012000000009000000000009000000000000000000000000000000000000000N1403000000025                 36B61580520424F9440578D1B2A9E60B
00028682246104125046        ELZA SOUZA  LIMA YANO              MS3400324         201403242100100000002665493390E551D95BD2599E695767AF05000000012000000000012000000000000000000000000000000000000000N1403000000026                 F53B53E1F8A8B96D478ACF87B6C23FC0
00031305571134298525203     ANISIO ALVES ARAUJO                MS3400326         201403242100100000002742DBEA725B81AC3C3CF15729A07500E3000000009000000000009000000000000000000000000000000000000000N1403000000027                 14F93518BDCBB89E4DAAC657E4B254FE
00090029135168000775740     MATHEUS TEODORO SIQUEIRA           MS3400327         2014032421001000000028B1030B91AF619C150FC1A7CE89EA0DA5000000007000000000007000000000000000000000000000000000000000N1403000000028                 73FDF0D43AB02942D0BE8FE6548AC244
00054401062191596055        EDER SAVIO MARTINS CAVALARI        MS3400329         20140324210010000000299D1BAF791B2EDD5E3245292D12FBF204000000012000000000012000000000000000000000000000000000000000N1403000000029                 75645AB78B6E02C3D6191FCA03D31D07
00093326610149001184543     LEISE MARA FIGUEIRA REZENDE        MS3400330         2014032421001000000030EF8C1D03B3DB136255E68FCA0892E722000000009000000000009000000000000000000000000000000000000000N1403000000030                 ED11439B64CE2005296F0F8BBC1F4115
000017218401091147638       JOAO CARLOS DE SOUZA NOVAES        MS3400337         2014032421001000000031BA00D8DB126E85EE27515ADEA0CF1191000000007000000000007000000000000000000000000000000000000000N1403000000031                 5E40B3417404239F47E2F5E03E816D3A
00000454180128001113255     MARIA SHEILA BRAGA DA COSTA        MS3400344         20140324210010000000320E2B34AC0C48E319166F21ABC0CE24C0000000009000000000009000000000000000000000000000000000000000N1403000000032                 B4A43F97175F679B97C738DB7ED4ECAD
000007528101541096179       ALEX DE OLIVEIRA SANTOS            MS3400345         2014032421001000000033C318EAEDE28C6784675FA8988BA45618000000012000000000012000000000000000000000000000000000000000N1403000000033                 6ADA2F9427E7F0546C2584F8878D17C2
000022965051121542763       MULLER BATISTA DE CARVALHO         MS3400346         2014032421001000000034205A603EF62B5251D684E788370DB030000000009000000000009000000000000000000000000000000000000000N1403000000034                 67AB65B296DE8450D777EE74D2AAFC53
00039106136168298517        MAURO CASSAL MOREIRA               MS3400347         2014032421001000000035D0976B4ADF1AE16BB4CED42E24B73ACD000000009000000000009000000000000000000000000000000000000000N1403000000035                 BB6DE6B4EC22C60D4CFD77700E15B118
00000010520120001587718     JACIANA MARIA DO NASCIMENTO DOS SANMS3400348         20140324210010000000360530D91BDB7C621FED72F5E8A5A4D094000000007000000000007000000000000000000000000000000000000000N1403000000037                 1BB3417E8F35A5B1947C2CA11A1F84E0
00045678847104921997        ABADIA RODRIGUES NOGUEIRA          MS3400351         201403242100100000003798A21536AD8A4F985042F35E55F24084000000010000000000010000000000000000000000000000000000000000N1403000000038                 38D0E7C76CA34A4921BA16E8C91616B4
00004457910120001684400     WELINTON DEL SANTE FERANDNES       MS3400352         201403242100100000003814D5CD10A4C6BE255DF4B3376814596C000000010000000000010000000000000000000000000000000000000000N1403000000039                 9DE39AB8693A9E6C6F04EEF2AD98DB80
000590835651491066466       CLAUDIO DE FREITAS MARTINS         RJ3400353         2014032421001000000039ED9EE6293FC198AFF4466F8A3566B61A000000005000000000005000000000000000000000000000000000000000N1403000000040                 B2E543633B9900F2F8EB1C39612D8529
00060959347100763457        LUCIENE OLIVEIRA GONCALVES         MS3400354         20140324210010000000408307CA1237FBE2D448E7CEDE88B3F4D8000000009000000000009000000000000000000000000000000000000000N1403000000041                 4501056168BC72C3F4BA2F0937E42303
00059245123120401315        NATALINA APARECIDA GONZAGA RIBEIRO MS340051          2014032421001000000041D6EA252AFBB1400EAA6180EE0F6EFA9E000000010000000000010000000000000000000000000000000000000000N1403000000042                 11EB72CEC7120149143F71FC72D20577
