00063694590110711895        UBIRAJARA BORGES DANIEL            RUA: IRAúNA Nº 46                            00000               79035210TAQUARAL BOSQUECAMPO GRANDE                  MS006733550017103                     MS     307316A554BD1E12D2D6F69207A84C16
00051876108134560144        GERSON RODRIGUES NOGUEIRA          RUA IRAUNA                                   00165               79035210TAQUARAL BOSQUECAMPO GRANDE                  MS00555555555510                      MS     0EBCBB6BCB70FD611059CAC928F66500
00051943220115597918        MARIA APARECIDA MARINHO             RUA CLARK                                   00060LOTE 13 QUADRA379035240JARDIM MONTEVIDCAMPO GRANDE                  MS006733559538123                     MS     52336E4A226DE82C3133918B2F3D7E95
00012118738897001811735     ROSA MARIA RODRIGUES RIBEIRO       RUA DO SELENITA                              00078               79035160JARDIM MONTEVIDCAMPO GRANDE                  MS006733547049125                     MS     2A0A6AB7BE1205A1E4290F74AAE5004C
00059620455134000739250     SANDRA REGINA DA SILVA GOMES       RUA MANDUBA 34                               00034ñ TEM          79035230TAQUARAL BOSQUECAMPO GRANDE                  MS00679628027912                      MS     527F945941317DDF05D8AE096EBC74BC
00006367348115161172        PERICLES ANTONIO BARBOZA           RUA NOVE DE MAIO                             00360CASA           79036260VILA DANúBIO AZCAMPO GRANDE                  MS006733552128134                     MS     056F8BE3B6D540D93228F3469FB82DB5
00051868563120642613        LUCINEIDE CHAGAS DA SILVA          RUA PANONIA                                  00004               79034440PARQUE DOS NOVOCAMPO GRANDE                  MS006733554687136                     MS     F6D7C8519133C0D301F627304911A2B7
00002036433138001491790     THIAGO APARECIDO DA SILVA          RUA DA GARçA                                 00201               79034670ESTRELA DALVA ICAMPO GRANDE                  MS006791214966142                     MS     24673C4723679645398B604108E1D7C2
00040844552100815397        HELDER ARRUDA AMARAL               TRAVESSA JULIO DORNELES                      00000QD 26 LT 13    79021430BOSQUE DA ESPERCAMPO GRANDE                  MS006733550764152                     MS     8B43DC2F9BBBD67F1800C72736E9AE2A
000000410161811126675       HERCULES ALVES ARRUDA              RUA LIDIA PAULINA MARTINS                    00075Q 03 LT 26     79036524BOSQUE DA ESPERCAMPO GRANDE                  MS006781188790165                     MS     CA17F47BAD5B5C6C2AFBDD625CF08453
00087066645120000948117     ROSENILDA LIMA DA SILVA            RUA CARLOS FERNADES ZARUR JR                 00000CASA           79035410TAQUARAL BOSQUECAMPO GRANDE                  MS006733542447167                     MS     97841DCB861F943BE55F775BC68DCA52
00087340453172965424        ADRIANA DEMETRIO LARA              RUA PINHAO                                   00600               79035441TAQUARAL BOSQUECAMPO GRANDE                  MS006792391565190                     MS     CBD00890C64B614B2E79064A0ECE0F9A
00059570253134476645        ALOISIO SEGATTO                    RUA MANDUBA                                  00376               79035230TAQUARAL BOSQUECAMPO GRANDE                  MS006784653282240                     MS     63D849C65285AFDE6C861BDC6F6C1B5E
00060831944153000741433     RUTE RODRIGUES NOVAES DE OLIVEIRA  ROBERT SPRENGLER NETO                        00076               79035430TAQUARAL BOSQUECAMPO GRANDE                  MS006733544850248                     MS     95E1FACB57E004134AB9579E037DC9EF
00000069429111001109604     DAIANA DUARTE GOMES                RUA CASA BRANCA                              00325               79036290VILA DANúBIO AZCAMPO GRANDE                  MS006733554401262                     MS     EAA950EB2C751F158544C564C8746218
00003097663118001652080     CAMILA MEIRA ANTONIO               RUA TAMANDUA                                 00004Q39 L4         79035230ESTRELA DALVA ICAMPO GRANDE                  MS006733554216263                     MS     5C31AE0EB6105A081704E56BB51EF695
000034785001411683791       THIAGO ALZAMENDES DE MONDE SANTANA RUA CHARIN                                   00212CASA           79035220TAQUARAL BOSQUECAMPO GRANDE                  MS006791306237276                     MS     E1781F0FD24BA03CCFDC2F6427F2B223
00000093838166001198916     VANESSA MARINS DUARTE              RUA BARRA FUNDA                              00604               79036300JARDIM FUTURISTCAMPO GRANDE                  MS006733541518292                     MS     B5291E4CDB1D0D1A305BB9489204229B
00005078410180103530171     CLEYCIANE APARECIDA SOUTHER        RUA DO LEAO                                  00319CASA           79034605ESTRELA DALVA ICAMPO GRANDE                  MS006733549436301                     MS     D2DA50A9D652D28F35D82C67BC043DE4
0008467111410000917931      MADALENA PEREIRA DO PRADO          RUA CASA BRANCA                              00123Q20 L 03       79036290JD FUTURISTA   CAMPO GRANDE                  MS006792525151302                     MS     A6E832DEEC5575F872425F6DFB86272E
0001768310610012893021      JOSE CARLOS GOMES                  RUA DESEMBARGADOR LEAO NETO DO CARMO         01135               79037100JD VERANEIO    CAMPO GRANDE                  MS006796996499303                     MS     ED4ED32661BBBA447C68B70487DCD3F6
000890014601781037014       MARCOS ALVES PEREIRA               RUA MANDUBA                                  00446               79035230TAQUARAL  BOSQUCAMPO GRANDE                  MS000000000000312                     MS     E95D64F90EA2416A828089CA19087303
00024976474100385706        APARECIDA MARIA DE BRITO MALAQUIAS RUA LUCIANA OTA PERES                        00294               79035350TAQUARAL BOSQUECAMPO GRANDE                  MS006791063382314                     MS     AEF557AE6649DCDD940356D1E32C6663
00074056220115001467509     GENISIA MARIA DOS SANTOS           RUA ESPERANTO                                00207               79036280FUTURISTA      CAMPO GRANDE                  MS006792653524318                     MS     5283B6E31B2DEFA8046BD2C1510F2623
00002262097178000044201     WELLINTON APARECIDO MOREIRA CUSTODIRUA MONT SERRAT                              02178CASA           79035310MONTE VIDEO    CAMPO GRANDE                  MS006733551049321                     MS     D2E04B62D3AC4F1CF2B49726C23A694C
00099512289172000554611     ELIETE OLIVEIRA DA SILVA GONSALVES RUA MANDUBA                                  00449               79035230TAQUARAL BOSQUECAMPO GRANDE                  MS006791591311323                     MS     6D7F3DD324158BEF11143A6E33AB7E9A
00028682246104125046        ELZA SOUZA  LIMA YANO              RUA DESEMARGADOR LEAO NETO DO CARMO          01135CASA2          79037100JD VERANEIO    CAMPO GRANDE                  MS006733268095324                     MS     8D6E3E9A4FF6DE7A2DC448E46053A136
00031305571134298525203     ANISIO ALVES ARAUJO                RUA PROJETADA III                            00000Q4 L17         79100000BOSQUE DO CARVACAMPO GRANDE                  MS006792167521326                     MS     75CE237E5F9171A5426D48CB39ABE5F3
00090029135168000775740     MATHEUS TEODORO SIQUEIRA           RUA GETULINA                                 00190CASA 3'        79035450TAQAURAL BOSQUECAMPO GRANDE                  MS006792776254327                     MS     7E7CD73CBFFA5ED663AF9AD3871709F0
00054401062191596055        EDER SAVIO MARTINS CAVALARI        RU LINEATA                                   00022               79100000JD VERANEIO    CAMPO GRANDE                  MS005555555555329                     MS     E70A033FA071D3FC04D6EE7646CEF5DD
00093326610149001184543     LEISE MARA FIGUEIRA REZENDE        RAU SIMOES                                   00035               79034480NOVOS ESTADOS  CAMPO GRANDE                  MS006792953019330                     MS     64315CCF9E4F897F61395137D4D2853C
000017218401091147638       JOAO CARLOS DE SOUZA NOVAES        COMENDADOR MAMPEI FUNADA                     00155               79036160VILA DANUBIO AZCAMPO GRANDE                  MS006792724299337                     MS     96498534424574A182BD3352F1233BBD
00000454180128001113255     MARIA SHEILA BRAGA DA COSTA        AV. PANAMERICANA                             00667CASA           79036460FUTURISTA      CAMPO GRANDE                  MS006733544560344                     MS     34DB100A49195F353856983F6832C9F2
000007528101541096179       ALEX DE OLIVEIRA SANTOS            RUA ADEMIR PEDRA                             00267               79035380TAQUARAL BOSQUECAMPO GRANDE                  MS006733553930345                     MS     ED8A7E232ACBD35A22AED2640D8C4481
000022965051121542763       MULLER BATISTA DE CARVALHO         RUA TRAVESA IMBU                             00110               79035242MONTE VIDEL    GAMPO GRANDE                  MS000000000000346                     MS     C572909E6DF7E18F9C5D6F2882D68EC4
00039106136168298517        MAURO CASSAL MOREIRA               RUA CLARCK                                   00300CASA           79035240TAQUARAL BOSQUECASA                          MS006799198926347                     MS     84C177CC21A8FDFF308624B02309342B
00000010520120001587718     JACIANA MARIA DO NASCIMENTO DOS SANRUA FENICIA                                  00100Q 9 L 11       79036020VILA DANUBIO AZCAMPO GRANDE                  MS006784425412348                     MS     D91B8166CD2B4544AF5B2137D7E89A66
00045678847104921997        ABADIA RODRIGUES NOGUEIRA          RAU IRAUNA                                   00034               79035210TAQUARAL BOSQUECAMPO   GRANDE                MS006792327065351                     MS     0EEB9D9A416A2662047090D16EF82926
00004457910120001684400     WELINTON DEL SANTE FERANDNES       RUA  DO VERDE                                00466               79036552JD ARCO-IRIS   CAMPO   GRANDE                MS006755555555352                     MS     0343BFA0D14E42B79D524AFE0BCF9EEE
000590835651491066466       CLAUDIO DE FREITAS MARTINS         RUA EDUARDO SANTOS PEREIRADO SANTOS PEREIRA  02340               79020170CENTRO         CAMPO GRANDE                  RJ006730286379353                     RJ     3D3D440E8C8DDC7DE36480494332A86D
00060959347100763457        LUCIENE OLIVEIRA GONCALVES         CLADIS ANA ADRIGUETO                         00374               79036514LOT. BOSQUE DA CAMPO GRANDE                  MS006791032716354                     MS     B961FCE4DB3518D87F50A5D7C3AF306F
00059245123120401315        NATALINA APARECIDA GONZAGA RIBEIRO  IRAUNA N 70                                 00000               79035210TAQUARAL BOSQUECAMPO GRANDE                  MS00673354611051                      MS     9BCFC1750A0BAE5FFC6FE011F0D110DC
