00063694590110711895        UBIRAJARA BORGES DANIEL            MS3400103         20140625210010000000014A7E1B21C4860C984FBE4D2736A5D8CB000000007000000000007000000000000000000000000000000000000000N1406000000001                 8C0746DF9772C738E29C918FE5DE7FCC
00051876108134560144        GERSON RODRIGUES NOGUEIRA          MS340010          2014062521001000000002BAA7D6B493EAE9B4BDF699DDB91A47B0000000005000000000005000000000000000000000000000000000000000N1406000000002                 2AD2E65DF7B031CE96AE113288B24B87
00051943220115597918        MARIA APARECIDA MARINHO            MS3400123         20140625210010000000031FEF541D2C1C76EA51DC622983011CED000000009000000000009000000000000000000000000000000000000000N1406000000003                 2AECD9279F59D29F055C7F9EF66F6A6D
00012118738897001811735     ROSA MARIA RODRIGUES RIBEIRO       MS3400125         20140625210010000000042683E83DEE84C9C0D72B7580F366E6D5000000004000000000004000000000000000000000000000000000000000N1406000000004                 32E3D8EC44D694D9A83F845FF2B11E2C
00059620455134000739250     SANDRA REGINA DA SILVA GOMES       MS340012          2014062521001000000005A9048A231A7F73E970C68EF82539759E000000005000000000005000000000000000000000000000000000000000N1406000000005                 6E74CFC56BD81CA2F2425F2230497772
00006367348115161172        PERICLES ANTONIO BARBOZA           MS3400134         20140625210010000000064BC901AA056BE0F94F1C79B7D3FD454B000000009000000000009000000000000000000000000000000000000000N1406000000006                 EDA1FD7E802D7BB94EF8DFF10A3196F3
00051868563120642613        LUCINEIDE CHAGAS DA SILVA          MS3400136         20140625210010000000077AA340E6F8880A2918E785BDB5800389000000005000000000005000000000000000000000000000000000000000N1406000000007                 4319CEA1CE2F19DA951A70CA971A659F
00002036433138001491790     THIAGO APARECIDO DA SILVA          MS3400142         2014062521001000000008F0831BAED5E43798DAFE92BBC6F464B8000000010000000000010000000000000000000000000000000000000000N1406000000008                 74D728BF12F3AF5E0D8C0DDF8BB15AF4
00040844552100815397        HELDER ARRUDA AMARAL               MS3400152         2014062521001000000009B3A427AE3E2D32D893B9C46354EA586E000000007000000000007000000000000000000000000000000000000000N1406000000009                 0C68449F507EA5ECCECC17A5CD3E6265
000000410161811126675       HERCULES ALVES ARRUDA              MS3400165         2014062521001000000010F40C7695EC1A28E45CEE71EF37B92040000000009000000000009000000000000000000000000000000000000000N1406000000010                 DD4B1B94FF7A3D001D96183FECBB52E5
00087066645120000948117     ROSENILDA LIMA DA SILVA            MS3400167         2014062521001000000011F9E85A2D6CF37FA9854280A520DF9FFC000000007000000000007000000000000000000000000000000000000000N1406000000011                 B16B7E5F2D2E800E4FEE09C27830A511
00087340453172965424        ADRIANA DEMETRIO LARA              MS3400190         2014062521001000000012863B8297E826BA9D6E84B71391065E94000000009000000000009000000000000000000000000000000000000000N1406000000012                 0EDF33825082B216EEF5EA36F7BA2639
00059570253134476645        ALOISIO SEGATTO                    MS3400240         2014062521001000000013541E22B94FD100613F5539EA73991133000000007000000000007000000000000000000000000000000000000000N1406000000013                 B17B17A4FD2B0CB2CC3E45AB300857E8
00060831944153000741433     RUTE RODRIGUES NOVAES DE OLIVEIRA  MS3400248         20140625210010000000147912C4684EF0385714A83E3A889B1D1E000000005000000000005000000000000000000000000000000000000000N1406000000014                 CE81A4D4004D4E3750DB044CCB853C23
00000069429111001109604     DAIANA DUARTE GOMES                MS3400262         2014062521001000000015A710A6303E1E62C4E89A9CF18B5B765C000000007000000000007000000000000000000000000000000000000000N1406000000015                 F684A095AFE9A9FC48BCEC32F9D7CB8E
00003097663118001652080     CAMILA MEIRA ANTONIO               MS3400263         2014062521001000000016931FC9B205E655199372B01A630ACF78000000009000000000009000000000000000000000000000000000000000N1406000000016                 C53BC35CF16AFB50FF11C3FCFDDB4730
000034785001411683791       THIAGO ALZAMENDES DE MONDE SANTANA MS1400276         2014062521001000000017D51D748FDBFC1A3EDED9BAC7551473CF000000007000000000007000000000000000000000000000000000000000N1406000000017                 1033AF99FAF343542E108F70040DE8B2
00000093838166001198916     VANESSA MARINS DUARTE              MS3400292         2014062521001000000018E1940348CA2A4DE7D77608C40EBBDAC6000000005000000000005000000000000000000000000000000000000000N1406000000018                 DBC41961643093365DEFEED93C3951B5
00005078410180103530171     CLEYCIANE APARECIDA SOUTHER        MS3400301         2014062521001000000019CA2CF0FE55EB41C8C4EA93276AAC7C92000000009000000000009000000000000000000000000000000000000000N1406000000019                 462CF2E949721E11FDD6867F0D3D973C
0008467111410000917931      MADALENA PEREIRA DO PRADO          MS3400302         201406252100100000002051DF67FBE9A33C89A260ACC0145674DC000000009000000000009000000000000000000000000000000000000000N1406000000020                 D74110397F138749AA61D6AB78A93B4C
0001768310610012893021      JOSE CARLOS GOMES                  MS3400303         20140625210010000000215AB73AEE733F2EA09540798BBA2E12A8000000012000000000012000000000000000000000000000000000000000N1406000000021                 8099A41169854E768C2DC4C275BECFFD
000890014601781037014       MARCOS ALVES PEREIRA               MS3400312         20140625210010000000229A167C36B6B4624B6AA2E25AF8EB52B2000000009000000000009000000000000000000000000000000000000000N1406000000022                 988A06FBCEE44FCFADF0D8A674E9AA8E
00024976474100385706        APARECIDA MARIA DE BRITO MALAQUIAS MS3400314         2014062521001000000023F9EE9854BAFBB03FA44236E1733E6887000000012000000000012000000000000000000000000000000000000000N1406000000023                 0A03E59EC7376C3078293AACECF87C44
00074056220115001467509     GENISIA MARIA DOS SANTOS           MS3400318         2014062521001000000024DB89FA887D428ADA06D77C8F61BA278D000000009000000000009000000000000000000000000000000000000000N1406000000024                 9C2E5055A2CED9B27F4AAE41BFC994DC
00002262097178000044201     WELLINTON APARECIDO MOREIRA CUSTODIMS3400321         201406252100100000002564AD5ABF273240210DD8447409249964000000009000000000009000000000000000000000000000000000000000N1406000000025                 CB8EB53247A7F6E9893C3D56F250CEEC
00099512289172000554611     ELIETE OLIVEIRA DA SILVA GONSALVES MS3400323         2014062521001000000026EE3F062A6B4C95FEC4419FBE31AFD549000000009000000000009000000000000000000000000000000000000000N1406000000026                 3D70467AA0ECA54C7960696D7CF98F4D
00028682246104125046        ELZA SOUZA  LIMA YANO              MS3400324         2014062521001000000027AC53C07F62902C63663B215906F2233B000000012000000000012000000000000000000000000000000000000000N1406000000027                 A135E9EAD43258B301A5B57526F91C1F
00031305571134298525203     ANISIO ALVES ARAUJO                MS3400326         201406252100100000002813ADC111AFFF10E01B13FF53B039C39E000000009000000000009000000000000000000000000000000000000000N1406000000028                 696559B19D4E3FFBCC16EDC486FAA0B9
00090029135168000775740     MATHEUS TEODORO SIQUEIRA           MS3400327         20140625210010000000292AF53CCEF56DA27F35A89FE53650881A000000007000000000007000000000000000000000000000000000000000N1406000000029                 A3A3DABA999EB65FE5D1AA6B6CF05DCF
00054401062191596055        EDER SAVIO MARTINS CAVALARI        MS3400329         201406252100100000003046A1A3337E84CE35903081D8E04653F9000000012000000000012000000000000000000000000000000000000000N1406000000030                 0172EBE0D6DAD616CF393F769DAEAB6F
00093326610149001184543     LEISE MARA FIGUEIRA REZENDE        MS3400330         2014062521001000000031577123594452DB34E1FEF61D87D9DCBD000000009000000000009000000000000000000000000000000000000000N1406000000031                 FF583D24181DC417D5B040329D6F16A8
000017218401091147638       JOAO CARLOS DE SOUZA NOVAES        MS3400337         20140625210010000000323DC37757998D8EA7B3C9191CD1F2B6F8000000007000000000007000000000000000000000000000000000000000N1406000000032                 43EC9D4ED5A8330FF4769DB75E8A35BC
00000454180128001113255     MARIA SHEILA BRAGA DA COSTA        MS3400344         20140625210010000000332B766F4D26FA3E384F4A18188148696C000000009000000000009000000000000000000000000000000000000000N1406000000033                 B8EC45DC8719A5F77317A0282967A3D4
000007528101541096179       ALEX DE OLIVEIRA SANTOS            MS3400345         20140625210010000000341886963D72605B2483E2416CAB935BA0000000012000000000012000000000000000000000000000000000000000N1406000000034                 EC9855875107F46A7267F02F1EA46909
000022965051121542763       MULLER BATISTA DE CARVALHO         MS3400346         20140625210010000000356348C3DB16FFF556BB608D7E20D9F738000000009000000000009000000000000000000000000000000000000000N1406000000035                 45C3A17EEFF55C722566137CCC754E4B
00039106136168298517        MAURO CASSAL MOREIRA               MS3400347         2014062521001000000036153BA1082DE1B1AAE1D51A229268A996000000007200000000007200000000000000000000000000000000000000N1406000000036                 CC85637195C153FDC76B5BA373C6D231
00000010520120001587718     JACIANA MARIA DO NASCIMENTO DOS SANMS3400348         201406252100100000003711662080501E6D10027B33399C28B938000000007000000000007000000000000000000000000000000000000000N1406000000037                 D2E4E9320A01E3C819E058A4C648A266
00045678847104921997        ABADIA RODRIGUES NOGUEIRA          MS3400351         2014062521001000000038B2DD6EB32DE7BEADA9103A393B3E8948000000010000000000010000000000000000000000000000000000000000N1406000000038                 BA27B702771C5DD9E33AC78C248652E1
00004457910120001684400     WELINTON DEL SANTE FERANDNES       MS3400352         2014062521001000000039ADFCD90DCFA4A91FBDE8C2D74965B80B000000010000000000010000000000000000000000000000000000000000N1406000000039                 6EF9896B59B93A37240A8F8E21EB941A
000590835651491066466       CLAUDIO DE FREITAS MARTINS         RJ3400353         2014062521001000000040E9326567D2EE400098A410A1DD82FE05000000005000000000005000000000000000000000000000000000000000N1406000000040                 AD158F819AEFD3F2E0BA2DA8554598A2
00060959347100763457        LUCIENE OLIVEIRA GONCALVES         MS3400354         201406252100100000004181C009F06AF260F91A0DF95A6124DA16000000009000000000009000000000000000000000000000000000000000N1406000000041                 EE2C703471677EFA9AAC1E6C7FF513F8
00059245123120401315        NATALINA APARECIDA GONZAGA RIBEIRO MS340051          2014062521001000000042E5D55854913233452AD88C769659CFB3000000010000000000010000000000000000000000000000000000000000N1406000000042                 A4C9E9F59B7B128EB410401B83A2E22C
